:020000041000EA
:1000000000B5324B212058609868022188439860DF
:10001000D860186158612E4B002199600421596104
:100020000121F02299502B49196001219960352056
:1000300000F044F80222904214D00621196600F024
:1000400034F8196E01211966002018661A6600F04E
:100050002CF8196E196E196E052000F02FF8012189
:100060000842F9D1002199601B49196000215960AB
:100070001A491B48016001219960EB211966A021F2
:10008000196600F012F800219960164914480160C1
:100090000121996001BC002800D000471248134993
:1000A000086003C880F30888084703B5996A0420EC
:1000B0000142FBD001200142F8D103BD02B5186610
:1000C0001866FFF7F2FF186E186E02BD00000240BE
:1000D000000000180000070000035F00212200005C
:1000E000F4000018222000A00001001008ED00E03C
:1000F000000000000000000000000000070B8FD58A
:1001000068100020B91C0010B13E0010751C0010D2
:1001100000000000000000000000000000000000DF
:10012000000000000000000000000000B11A0010F4
:100130000000000000000000511A00108123001090
:10014000211B0010211B0010211B0010211B00107F
:10015000211B0010211B0010211B0010211B00106F
:10016000211B0010211B0010211B0010211B00105F
:10017000211B0010211B0010211B0010211B00104F
:10018000211B0010211B0010211B0010211B00103F
:10019000211B0010211B0010211B0010211B00102F
:0801A000211B0010211B0010BF
:1001A80002B4714649084900095C49008E4402BC02
:1001B8007047C04603B47146490840004900095ECB
:1001C80049008E4403BC7047002934D00123002223
:1001D80010B488422CD301242407A14204D28142BE
:1001E80002D209011B01F8E7E400A14204D28142CE
:1001F80002D249005B00F8E7884201D3401A1A434B
:100208004C08A04202D3001B5C0822438C08A04281
:1002180002D3001B9C082243CC08A04202D3001B37
:10022800DC082243002803D01B0901D00909E3E7B1
:10023800100010BC704701B5002000F05FF802BD47
:100248000029F8D003B5FFF7C1FF0EBC4243891A55
:100258001847C046002941D010B404004C40A446B9
:1002680001230022002900D54942002800D5404238
:1002780088422CD301242407A14204D2814202D20D
:1002880009011B01F8E7E400A14204D2814202D22D
:1002980049005B00F8E7884201D3401A1A434C082A
:1002A800A04202D3001B5C0822438C08A04202D360
:1002B800001B9C082243CC08A04202D3001BDC0888
:1002C8002243002803D01B0901D00909E3E71000E5
:1002D8006446002C00D5404210BC704701B5002090
:1002E80000F00CF802BDC0460029F7D003B5FFF7AF
:1002F800B3FF0EBC4243891A1847C0467047C04630
:100308001C2101231B04984201D3000C10391B0A3D
:10031800984201D3000A08391B09984201D3000901
:10032800043902A2105C40187047C0460403020258
:1003380001010101000000000000000041420840E6
:100348001C2101231B04984201D3000C10391B0AFD
:10035800984201D3000A08391B09984201D30009C1
:10036800043902A2105C401A7047C0461B1C1D1DB0
:100378001E1E1E1E1F1F1F1F1F1F1F1F002B11D1F8
:10038800002A0FD1002900D1002802D00021C9433A
:10039800080007B4024802A14018029003BDC046F5
:1003A8005DFFFFFF03B4684601B5029800F053F8FB
:1003B800019B9E4602B00CBC7047C046D0400B0063
:1003C800D1409C46203AD34018435242634693405A
:1003D800184370479140030090409C46203A934050
:1003E800194352426346D3401943704710B5002958
:1003F80003D1FFF785FF203002E00800FFF780FFF8
:1004080010BDC046F7B5040C0D0091B20F00614352
:100418008C460600019383B2100C5F434443584353
:100428003B0C60441B18994202D980214902641888
:10043800019955437143180C04191B04BFB249199B
:10044800D819091903B0F0BD10B5002802D0FFF77C
:1004580075FF013010BDF0B506000F0015001C0037
:1004680085B08B4263D801D1824260D82100280030
:10047800FFF7BCFF390000903000FFF7B7FF009B83
:1004880021001B1A1A0028000393FFF7A3FF00900E
:100498000191B94245D801D1B04242D8009B019C94
:1004A80001200021039AF61AA741FFF793FF0400E1
:1004B8000D00039B002B2BD0019B009ADB075008F3
:1004C8001843019B5908039B9C46B9422CD801D17B
:1004D800B04229D832003B00121A8B4101269218EB
:1004E8005B410027B6185F4101235B429C44634689
:1004F800002BEAD130003900039AFFF75FFF039A17
:10050800A4197D4106000F00FFF764FF241A8D41EE
:100518000A9B002B01D01E605F602000290005B0F7
:10052800F0BD00240025C4E7B6197F41DCE70024AC
:100538000025EDE7030010B5034A04491068C91AFD
:100548005843FFF741FE10BDB8000020D204000058
:10055800234A03008118234A052091423FD9224AA1
:1005680022499A1800188A4239D9214A21499A18E9
:1005780005308A4233D9204A20499A1805308A42E0
:100588002DD91F4A1F499A1805308A4227D91E4A71
:100598001E499A1805308A4221D91D4A1D499A18C0
:1005A80005308A421BD91C4A1C499A1805308A42D0
:1005B80015D91B4A1B499A1805308A420FD91A4A7D
:1005C8001A499A1805308A4209D9194A19499A18B4
:1005D80005308A4203D9184A934200DC0530704737
:1005E8004C86FCFF246D0100F441FDFFA7BB000011
:1005F80064D2FDFF6F900000A055FEFF3B83000012
:10060800CF99FEFF2E4400007DDEFEFFAD440000C2
:10061800C214FFFF44360000E13FFFFF1E2B00001D
:100628005462FFFF72220000FC7DFFFFA71B000041
:100638004B94FFFF4E160000B46B0000F0B58BB072
:1006480005AC14220021200003F05FFC02AB9F1DC3
:100658000223A760E3602F4D280003F059FF00280C
:1006680043D0AB6828002C491B689847021E41DB21
:100678002A4803F00BFB00222948296803F006FBEF
:10068800012363600B332382AB68210001932800A8
:100698005B689847011E234824DB3988224803F009
:1006A800F5FA3888FFF746FF03F0B9FA06001F4845
:1006B800310003F0EBFA3000FFF74AFF1C4B010052
:1006C800180003F0E3FA019B3E889B8908207343D6
:1006D80004A9049301F04CFB002810D1049E3613A2
:1006E8003100144803F0D2FA0EE0134803F0CEFAB2
:1006F8000BB0F0BD0021114803F0C8FAF8E7002854
:10070800EEDA0F4803F0C2FA00210E4802F020FE8C
:10071800AEE7C046284900107E4A00102B4C001056
:10072800394C00104C4C0010614C0010644C001007
:100738007B4C0010A44C0010E84B0010094C001032
:10074800864C001010270000F0B595B004930423E0
:1007580009921A40099B0892DA0807231A400132C5
:1007680007001A9C02910B92820700D0D2E1021D69
:100778000092002804D007290AD81C20404254E1DE
:10078800029A1A401300043200920822D31A0293E4
:100798000425049B2E00013B0593002307930A932D
:1007A80003930193013B0693002F02D0009B049A08
:1007B8001A600B9B002B00DDEBE09D4B049A9A42DC
:1007C80003D39C4B9A4200D2E3E0009B0999DA1BC1
:1007D8009308890700D509E1039A0F2A00D9B4E0E4
:1007E800002F00D10AE103990CAA53540A00069974
:1007F80010AB99540A9B01330A93EEE07A2861D82A
:100808004B280ED847285DD829282BD8252856D01C
:1008180058D820287FD0233843425841C3B2019387
:1008280079E04C382E284DD8FFF7BAFC754C4C4C63
:100838004C4C4C4C4C4C4C4C4E4C4C4C4C4C4C4CEE
:100848004C5D4C4E4E5D5D5D754E734C754C184E4F
:10085800184C4C89874E4C4C4E4C87000023019312
:1008680004253EE001210A002A38C0B28240724BBA
:100878001A4250D1E220130080050340024232D1CF
:100888001000084001900A4245D0009A6942013A96
:10089800521911400091002F65D0F21B521802998D
:1008A8008A4200D969E7002B6AD1042E4BD108CCC3
:1008B800009A1360009B0426043300932BE0069BE8
:1008C800013B06930023AAE7059B5A78002301936E
:1008D8006C2ADAD10425059A2E0012786C2AD4D114
:1008E8006D192E00D1E7072500990734AC43491943
:1008F800A9430CCC002F08D00135ED1B029E6D18C2
:10090800B54200D939E70A604B60002308310091ED
:10091800019308252E00059B01330593059B9878C4
:10092800002877D0019B002B00D067E72528F2D15B
:10093800069B01330693012301930425EAE700226D
:10094800019B01928CE7082E01D0162016E7072399
:10095800009907349C430CCC0A604B60009B082626
:1009680008330093D7E7002B0AD1042E01D10434B1
:10097800A0E7082EE9D1072307349C430834EDE7A4
:10098800059B023305930B9B013B0B9308CC049307
:100998000AE7099B9B0723D50121009BDA1B9308D3
:1009A800802080008242D0D2039A0F2ACDD8002F0F
:1009B8001ED00398DBB20CAA13549C46069B10AABF
:1009C8001354002900D115E780226346524213438D
:1009D8000CAA1354079B01330793039B013303931A
:1009E800009B04330093059B013B96E70021D7E762
:1009F800002903D0029B01330293EEE7029B0233E6
:100A08000293089B002BE8D1049803F063FA029B39
:100A18001B18F1E78022009BD200DB1B934294D283
:100A2800002F0BD102980838C01815B0F0BDC04689
:100A380098480010F4500010DAFF00009B082822A4
:100A480038603B706B469B18089A1B78002A0CD0BC
:100A5800FB70079BBB70002B20D100260CAD039BBD
:100A6800B34220D1009BD81BDFE77B70F1E70CACC9
:100A7800E4560CA9595C002C0BDA009C029DA418C2
:100A88000140AC4200D978E6009C21702100013178
:100A98000091013303999942E9D1DEE7012200234D
:100AA8007F20D21BF6E7079B002B02D02B787F2BE9
:100AB80021D8089B002B21D010AB009AF35C0024AE
:100AC80013701300013300930123009ADB1B1B19D9
:100AD800D318029A934200D94FE6009B009A01333B
:100AE80001932B78049913700198220003F004FAFB
:100AF800019B1B19009301360135B0E72B789B0049
:100B0800FB181A680492089A04981A6003F0E2F92C
:100B1800441CD9E70E2031E6014B18607047C046E7
:100B2800BC000020F0B51C00002799B00490059186
:100B38000892089B1878002801D1380027E3089B01
:100B480001330793252807D00599049B9847002867
:100B580000DA1CE30137E3E112AD18220021280076
:100B680003F0D3F9089B5B78252B14D1089AEB7214
:100B78000232079212AB5A7AD10700D47FE102CC35
:100B88000391002900DB7FE10421187A01431972DF
:100B9800039B5B4277E10022012615001000944672
:100BA8000392079B1B782B2B6FD068D8202B71D012
:100BB800232B71D0002A05D012AE327A11004022C0
:100BC8000A433272002D04D0202212AD2E7A32430D
:100BD8002A72002804D0102212A8057A2A43027229
:100BE800039A002A04D0082212A9087A02430A723A
:100BF8006246002A04D0042212A9087A02430A7223
:100C0800442112A8027A1140442902D140218A4382
:100C180002728022017A52420A43027200210A2596
:100C2800079A2A2B40D1417A293B0B430132437260
:100C38001578022629002E394B42594112A8437AC9
:100C48004900B3430B4343722E2D45D153782A2BC9
:100C58003DD00023013208361178551C0800303881
:100C6800092863D912A916930D7AA80718430223F5
:100C78009D432B00C00F400003430B722CE02D2B2B
:100C88000CD0302B96D1320000E00396079B01333D
:100C9800079386E73000F9E73500F7E7B446F5E74C
:100CA80032006943303959181378561C1800303807
:100CB8000928F5D9079B9342BAD0022512AB187AB6
:100CC8001591C90F4900A84301431972B0E70423DD
:100CD800417A02320B434372117812AB6C2945D02A
:100CE80029D8682930D06A294CD04C2954D0117899
:100CF800531C12AA0793D172537A782900D9B9E004
:100D08006D2950D8692900D9B4E0572966D84129F6
:100D180003D04539022900D9ACE0072312A98A7A01
:100D28009A43033B13438B72012373E07343303BB5
:100D38002A005B1890E7742929D07A29D7D178211D
:100D4800587A884348390DE050787821682806D1C8
:100D5800587A88437039014359720232C7E7587A82
:100D680088431021014359720132C0E75078782135
:100D78006C2803D1587A88435839ECE7587A884365
:100D88001821EFE77821587A88435039EAE7782123
:100D9800587A88434039E5E71889A5490840A549A4
:100DA80001431981E0E7012005006E39C9B28D4081
:100DB8002900A14D294238D12425294251D1014287
:100DC80058D00721907A88430439014391727822D8
:100DD8001340403B5A425341DBB21BE001200D0057
:100DE8000600583DEDB2AE403500E22636023542E7
:100DF80093D1924E354222D1842189020D4239D0B5
:100E08000725917AA9430143917278210B40402B21
:100E180011D0002312AA117A8807C00F03430220B9
:100E28005B00814319431172A4E60721957A8D432B
:100E380005392943E8E7137A03431372E9E70725DD
:100E4800967AAE43053D3543957278252B40402B65
:100E580002D1157A284310726329DAD15A1E9341B8
:100E6800BAE70721907A88430439014391727822BE
:100E78001340F3E7012312AA117A0B43DDE7197A2D
:100E88007F290FD9DB68039312AB51070CD504CC2B
:100E98000692002A0CDA02215A7A8A435A720123EE
:100EA8005B4204E0012374E69207F8D51B690693B8
:100EB800002512A98B7A4A7A5B0752065B0F120F3C
:100EC800CD600D61012B30D1D01E042804D8FFF766
:100ED80067F90E45450E0E002368D817129348602F
:100EE800012A09D15BB21293DB174B6006E008CCEC
:100EF8001293DB174B6002E0022A14D0043412A9C3
:100F08000B7A03201D000540034245D0079B089A31
:100F18000599049802F01CFF002800DA37E13F1811
:100F2800079B089305E61BB2DDE7022B25D1D01EEF
:100F3800042804D8FFF734F90D121219190008CC47
:100F4800012A16D012934D609BB2022AD7D1129370
:100F5800D5E708CC129300231393D0E7072307346F
:100F68009C4303CC12901391C9E708CC1293002339
:100F7800C0E7DBB212934D60C1E7042B08D10734F8
:100F880003339C4320686168083412901391B6E7D4
:100F9800032BB4D108CCDAE7C87A7828C0D86228FD
:100FA8002BD8252800D1CFE55828B9D11298139904
:100FB8001E230AAA9B18009314AA0CAB02F07BFE0E
:100FC800069B0600002B0DDB1E2340200AAA9B1857
:100FD80012AA117A9B1B814311720699994201D971
:100FE800CB1A1593002E9BD01E230AAA9B18981B78
:100FF8000693002D32D0013030E0633815288FD8A1
:10100800FFF7D8F85E0068008EFF8EFF8EFF8EFF18
:1010180068008EFF8EFF8EFF8EFFA0007A007C0096
:101028008EFF8EFF1E008EFF7A008EFF8EFF7A00E5
:10103800FD87FFFF02400000820400000108000055
:10104800069B129E002B37DB1900300002F04AFF86
:10105800331800250693002E00D161E712AB9B7A66
:101068001022190011400B91134200D185E0023083
:10107800159A0A9280185B0601D5169BC018039B27
:10108800002B00DC94E01B1A039312AB1B7A5A075F
:10109800D10F0891002A00DA8AE05B0600D478E0D4
:1010A800002D07D028000599049B984700286EDB7F
:1010B800089D013730236DE0300002F00BFFC7E7D1
:1010C8000923129A0CAE32700AAA9B180025012037
:1010D8000693C3E72B251A0702D4DB06DB0F5D0155
:1010E800129A139B002B00DB60E7002150429941C4
:1010F8002D251290139159E7002557E7129812AD44
:10110800002834D01E230AAA9B18009314AA0CABFB
:10111800002102F0D0FDEF236A8906001A40484BEF
:1011280013436B810025069BAB4200DB4CE7A842CA
:1011380000D1F5E61E230AAA9B18181A1E239B182D
:1011480006938BE7129B072A00D9E9E61000FFF700
:1011580027F80C04060C08080C0C1F70E0E61F802A
:10116800DEE6FA171F605A60DAE61F60D8E6354BEC
:101178000500354E0520069370E71A07D20F801830
:1011880076E705990998049B9847002805DA19B06D
:10119800F0BD20230993039B0893089B1A00013A8A
:1011A8000892002BEDDC039AD719FF1A089B0393CA
:1011B800002D06D028000599049B98470028E6DBF7
:1011C800013712AB9B7ADA0601D41B0706D530200B
:1011D8000599049B98470028D9DB01370B9B002B06
:1011E80007D012ABD87A0599049B98470028CEDB24
:1011F80001373D0006E030200599049B98470028F8
:10120800C5DB01350A9BDB195B1B002BF3DC3200C5
:10121800069B0599049802F09BFD0028B7DB471947
:101228003D00039B5B19DB1B002B00DC78E62020CC
:101238000599049B98470028A9DB0137F1E7C046C8
:1012480010780000C44C0010BF4C0010F0B585B0F9
:1012580001902F48039102F09CFD061E0AD104005C
:1012680001272C4D2C4B9D4206D3019B002B01D00E
:10127800002C1FD105B0F0BD2B7B002B10D02B68A4
:10128800DB68002B01D0280098472B681B69002BCE
:1012980008D16B6804222800196800F0C5F80136E7
:1012A8001035DFE7280098470028F2D03B00B3400C
:1012B8001C43F4E727002000FFF740F80123834090
:1012C800DA43144E05019C43731901931B7B029268
:1012D800002B0CD0AB591B69002B13D1029B76193C
:1012E8001F40736804221968019800F09DF8002CCB
:1012F800E1D1039B002B03D06420002102F028F8E1
:101308003C00B5E7019898470028F0D1E6E7C046C9
:10131800B0020020684A0010784A0010014B800093
:10132800C0587047884A0010030010B50800002B09
:1013380005D0044A136000F075FA002010BD16208D
:101348004042FBE7C00000200023FA21054A10B5FF
:101358001370054A05481360054A89001360FFF7B2
:10136800E3FF10BD60030020A80200208B3D0010A1
:10137800AC02002070B50C4D2978002908D1012055
:10138800FFF764FF094C0A4B9C4202D301232B70E0
:1013980070BD63685B79002B03D0236820009B68CD
:1013A80098471034EFE7C04660030020684A0010F1
:1013B800784A001010B50400044802F0EAFC002C3A
:1013C80003D00121024803F013FA10BDA80200203F
:1013D800AC02002070B50A4B05001B689847094C01
:1013E800A860094B9C4200D370BD63685B79002BF1
:1013F80004D02368290020001B6898471034F0E7C0
:10140800C0000020684A0010784A0010044B054AC2
:1014180000209B1ADB08994201D2C90088587047FE
:10142800684A0010304A0010084B10B5C31A4468C7
:101438001B110133237143689A71012243681960B3
:1014480043685A7102F0BEFC10BDC046684A0010DD
:10145800F0B50400002087B002AF7B603B6B0E0044
:101468001500834207D07B6B1021FB6000933B6B18
:10147800FA6AFFF769F90722230015401340DB00D9
:101488001549AD011D4343020B401D43BC6ABB6AAD
:1014980017341B051D43231893430333043A93431E
:1014A8000733D34093406A46D31A9D463B6B02AC40
:1014B800002B08D0010020007B6B103000933B6BA1
:1014C800FA6AFFF741F92A00310020007B6802F030
:1014D8007CFCBD4605B0F0BD00FE0F000EB417B58C
:1014E800054C05AB04CB01002000019302F0AEFCD3
:1014F8001EBC08BC03B01847053E001010B5CB064B
:1015080004D4890603D50349FFF7E8FF10BD024953
:10151800FAE7C046D34C0010D24C0010F0B58FB09B
:10152800069314AB1B7807000C0008920593002B58
:1015380000D19CE00225189B189A1D4001231A40EF
:101548000A92189A07331A400B92002602F03BFCC5
:101558000200B04204D038008349FFF7BFFF0600FD
:10156800002D09D04423189A1A4244D12200380089
:101578007E49FFF7B3FF36180A9B002B0AD0059A5D
:101588007B4B9200D258002A00D17A4A38007A4917
:10159800FFF7A4FF00240B9BA34208D0059A774BC2
:1015A800920038007649D258FFF798FF0400089B4C
:1015B800002B05D01A0038007249FFF78FFF241856
:1015C800069B002B05D01A0038006F49FFF786FFED
:1015D8002418159B6D48A419002B00D09BE0179B7D
:1015E800002B51D1189BDB0700D5B7E038001899BC
:1015F800FFF784FF9BE00020654B1D688542BAD049
:10160800644B20001968FEF7DFFD2900FEF718FE7D
:101618000C00E12109010790FEF712FEFA20800074
:10162800099160432900FEF70BFE0C000C903C2149
:101638000998FEF7C9FDE1210D9009010798FEF709
:10164800C3FD0790FA20800029006043FEF7BCFD27
:101658000C9B02903C2109980193FEF7F1FD38009C
:1016680000910D9B079A4C49FFF738FF83E7069BCB
:101678004A48012B00D14548159B059C002B4AD1AF
:10168800179B002B53D00024179E102E00D910262C
:1016980038001899FFF732FF0025AC424CDC169B46
:1016A80038001A783E49FFF719FF012507231D4224
:1016B80003D138003B49FFF711FFAE4242D9169BD0
:1016C80038005A5D3649FFF709FF0135102DEDD175
:1016D800002538003449FFF701FF2B00169AD25C29
:1016E8001300203B5E2B00D92E2238002F49FFF72C
:1016F800F5FE0135102D2AD007231D4203D13800ED
:101708002849FFF7EBFE2B00AE42E7D83800254901
:10171800FFF7E4FEEDE7159B3A00254902F080FA51
:10172800179B002BB0D1059B002B00D05AE738003F
:1017380002F092FB0FB0F0BD38001A49FFF7CEFE59
:101748000135AAE738001B49FFF7C8FEBDE7169B1D
:101758009B191693179B9B1B1793E2E73800054AC2
:101768000549FFF7BBFE41E7DA4C0010DE4C0010DC
:10177800984A0010D54C0010034D0010AC4A0010D8
:10178800064D00100C4D0010104D0010053E0010C5
:10179800B8020020B4020020E74C00101D3E0010E3
:1017A800154D00101D4D00101F4D0010214D00104B
:1017B800553E00101B4D0010F0B50B8889B0DB05B5
:1017C8005C0F4B680F0015008E680790002B0CD03B
:1017D800134A9A1AD208002311B2120405D4387891
:1017E8008006400FFFF712FE03003A003968788838
:1017F80009030009490D103284465718481E8141D3
:1018080049420A406146019203910022310007983B
:10181800049502970094FFF781FE09B0F0BDC04619
:10182800304A0010012310B500211C00074A9042DD
:1018380007D8074A002900D101231360054B186017
:1018480010BD210040085B00F1E7C04640420F0090
:10185800B4020020B8020020014B00201960704734
:10186800D0020020012210B5024B03481A7002F082
:10187800F3FA10BD62030020DC4A001010B5054BD6
:101888000C001868FFF74AFD0F22030021000248E8
:10189800984710BDD0020020DC4A001070B50D003A
:1018A80004004618B44201D1280070BD21780348CD
:1018B800013483685B689847F4E7C046F84800102D
:1018C800014910220A60704710ED00E0BFF34F8F06
:1018D80030BF62B6BFF36F8F7047C046F0B50700E0
:1018E8000D0087B0002939D000248B681E4E05935F
:1018F8004B68012204930B68200003931B4B3100B3
:10190800029301942300009402F0B3FA6B69012258
:1019180005932B6931000493EB6820000393144B63
:10192800019402930094230002F0A3FAEB690122C8
:101938000393104B3100200002930194230000947C
:1019480002F097FAAB69012203930B4B3100029323
:10195800200023000194009402F08BFA290038003B
:1019680001F044F807B0F0BD584A00105E4D001071
:101978008D4D0010BC4D0010CB4D001043B2000639
:1019880005D41F221A4001239340014A136070476F
:1019980000E100E030B5FF2503220B00290040B22A
:1019A8000240D20091405B012B40C943934000287C
:1019B8000ADBC0240A4A800880008018A400025963
:1019C8000A401343035130BD0F2210400838054A1E
:1019D800800880008018C26911401943C161F2E78C
:1019E80000E100E000ED00E030BFFDE7FF22084B1A
:1019F80010B59343074A9360BFF34F8FBFF36F8FC0
:101A080001F09AF801F030FD00F03AF901F0D4F84D
:101A18000001001000ED00E0084A094993680968D0
:101A2800D8661967802307495B05486803434B60FC
:101A380062B6BFF36F8F9368186F70472403002056
:101A4800B84B001000ED00E013498A6813481044B1
:101A5800EFF3098CF0C043464C4655465E46674650
:101A6800F8C072B60E4F0F4E4A698A603E60D06E5B
:101A78000023D366002800D162B6084C1019103034
:101A8800F8C89846A146AA46B346BC462438F0C8CA
:101A98008CF3098870470000240300203000000000
:101AA80004ED00E00000000804207146014202D065
:101AB800EFF3098001D1EFF30880816902390978D1
:101AC8000229FFD001B502F0E3F901BD10B5203AB3
:101AD8001360029B01245360039B06499360049B97
:101AE800A143D36080235B04D36100239161026525
:101AF800C36610BDAB3C0010064B9860101C81F308
:101B08000988002162B6BFF36F8F0022002302F01C
:101B1800C8F8C0462403002001B5EFF30580054945
:101B2800401AC0000449014409C9984709BC9E46A7
:101B3800024908471000000040490010491B0010E6
:101B4800044B99685869884202D00349034A0A60DD
:101B5800704700002403002004ED00E0000000109E
:101B6800F0B5384B91B05F680400FB05DB0D0793B7
:101B780062B6BFF36F8F344E130EFF2B0DD1F33BBC
:101B88001340082B3FD10020304B01220293310033
:101B980003000190009002F08DF900252C00079BAE
:101BA800032B36D100272A4B0122029331003B0038
:101BB80038000197009702F07DF9A369023B1A8863
:101BC800244B9A4239D1236831000393224B0122D6
:101BD800029338003B000197009702F06BF92668E2
:101BE8002022210008A802F087F90F9B002D26D09B
:101BF800DA0502D1194A13430F93300008A9FFF7F9
:101C08006DFE11B0F0BD01251207C8D50C000025E6
:101C1800C5E7F8235B00124A1F4200D0114A002092
:101C2800079B0392103B04930F4B01220293310050
:101C380003000190009002F03DF90026D0E75B0A0E
:101C48005B02D9E700ED00E0584A0010274E00106B
:101C5800524E001002DF0000694E0010FF01000024
:101C6800F94D00100E4E0010854E0010EFF308805D
:101C7800EFF3098101B57246FFF772FF01BDC04657
:101C8800F0B5C02400220326FF25A40010002F0071
:101C98003040C0008740054993089B005B181959DC
:101CA8000132B94319511A2AF0D1F0BD00E100E020
:101CB80072B607480749401880F30988EFF3148083
:101CC8000221084380F31488BFF36F8FFFF78EFE5D
:101CD800680300200008000010B50A4B9B68834287
:101CE8000DD1EFF30583002B09D08022064B520556
:101CF80059680A435A605A6A04490A405A6201F00C
:101D080045FB10BD2403002000ED00E0FF7FFFFF2E
:101D1800014B18607047C046C40000200E4B0F4AA4
:101D280070B51A600E4D0F4B0F4C2B601900A2684E
:101D38009143FBD100F04AFC0C4B2B60A368DB01FC
:101D48008033FBD1EFF3108372B6002B02D162B659
:101D5800BFF36F8F002070BD00E00040BFCDFFFFD4
:101D680000F00040FE3F3C0000C00040FFFFFF01C4
:101D780070B50C0013280FD8094A4000855C002D67
:101D88000AD012185178002906D020686843FEF757
:101D980061FA2060002070BD16204042FBE7C04673
:101DA8009C4E00101FB540680A790078D306DB0EF8
:101DB80098420ED8002003931A4B012202931A4925
:101DC80003000190009002F0B6F88620404204B06B
:101DD80010BD488800280BD00020144B12490293EC
:101DE800030001900090012202F0A5F81620EDE70B
:101DF800202413002340224209D00D4B01220293D4
:101E0800094903000190009002F095F8DDE70A788F
:101E18001800082ADBD0074A03490292019300936D
:101E2800E1E7C046C44E0010304A0010E04E0010F2
:101E3800FE4E00101C4F0010020070B5031DDB6F32
:101E4800B43213600300AC300168B03319608021EC
:101E58000C4B09011960802104250B4CC90019603D
:101E68001D6021601068FEF7EFFA084B01381B6807
:101E780000035840E023DB011840054B186025603B
:101E880070BDC04608E0044000E0044000C00440C3
:101E980000D00440F0B5076987B03B004033040028
:101EA8000D001600059301225242D317059800F041
:101EB8009DFF33005A1E93413A0078321370049202
:101EC8007E672B7C6268591E24690B2910D90393FD
:101ED80049494A4B002002930122030001900090D7
:101EE80002F029F886246442059800F05DFF6BE053
:101EF8006F681678002F1FD10122013EB2400023DF
:101F08003A4201D00133DBB25208F9D12A685B00AA
:101F1800002A02D0928901325343EA689A4216D2C3
:101F28000020374B012202933349030001900090AF
:101F380002F001F80C24D6E73800FEF7E1F9202377
:101F48001B1AB342D8D92C492E4B0397C2E723005A
:101F5800AA68AC331A602A00303B43CA43C3002640
:101F680003CA03C326672B68B34230D025009035D7
:101F78002A0083CB83C21B6813602300A033E56764
:101F88001E802B68B34222D03100200002F03DFCB5
:101F980031006322002328688018594164220023F5
:101FA800FEF7ECF900902000002200230191083090
:101FB80001F024FC230078331B78002B0BD0049B02
:101FC8001C78002C90D00024200007B0F0BD200021
:101FD800FFF732FFEEE7200001225242D3175830B4
:101FE80000F004FF049B246F1B78002B00D17BE7D3
:101FF800002C00D078E7E6E7304A00102E4F00109A
:102008006D4F0010484F00108021F8B53E4D04690F
:102018006A682B6892B25B045B0F4900AE680E4297
:102028000DD02968890514D5230078331B78002B37
:1020380007D005214942200001F0A2FF44E0EE68E4
:10204800ECE705235B4223672000583000F0ACFE24
:102058003AE02600AC3631688F1C37600A800122CE
:1020680021009A40B4310B6893430B603BD1E36F76
:10207800002B31D023002500270094331B68A0359E
:102088002A889037002B05D03839984701280AD07C
:1020980002281AD022009C322B8812889A4214D91E
:1020A80001332B8003E02300B0331B6833603B68A7
:1020B800002B03D12000FFF7BFFE05E0012120001F
:1020C80002F096FB0128F5DCF8BD3B68002B03D035
:1020D8002000083002F066FB230078331B78002BC1
:1020E800B2D00021A7E71800FEF7AEF901382B6837
:1020F800C0B200035840E0230422DB011840034B20
:102108001860034B1A60DFE700C0044000D00440A9
:1021180000E0044010B5436804695B6898470E4BBB
:102128001A680E4B53400E4A13400E4A13600022A1
:102138000D4B1A6101321A60FF3219681142FCD046
:1021480001229A61A36C002B03D12000403000F0DB
:102158002BFE002010BDC04608C004400700000147
:102168000F00000F08D0044000C0044010B5084814
:1021780002F0CEF9002808D0064C2000FFF7C8FD71
:102188002000FEF7C9FC002010BD13204042FBE7E9
:10219800F8480010A121001070B50400074D0A2866
:1021A80004D1AB680D2128005B689847AB6828000C
:1021B8005B68E1B29847200070BDC046F84800103F
:1021C800F7B50600002403690193E308144A0833AD
:1021D8009B009B58072222409200D3400F221342B3
:1021E80003D101341E2CF0D1F7BD0F21200000F0DF
:1021F80033FB019B59680029F3D00127A7400D68DC
:102208000029EED08B681A003A403B4202D03000D9
:102218004B6898472B1E00D02B6829001D00EFE75C
:1022280000410140436803495A68936B0B4093632C
:102238007047C0463FF8FFFF10B5032B23D8012A8B
:1022480002D0032A1FD1013A02291CD80468013A96
:102258000E485B01D200415C1A43200000232C3059
:10226800994205D0023301391A434B4259418B0038
:102278001A436E23E16A4A401A4080235B010343F4
:1022880000201A6010BD16204042FBE7C04F001026
:10229800F0B5456885B02B68040006690021A86878
:1022A80003AA6F68019301F07EFF002823DB039BDC
:1022B80000221979186801F089FF00281BDB3168B2
:1022C800019800F033FB002817D00D4B3060736085
:1022D8000122032300216068FFF7AEFF3A00C02304
:1022E8002C329B011343002610221A603E60200006
:1022F8006B699847300005B0F0BD16204042FAE7F8
:102308000001030030B50A4B0A4A986819680A4D5B
:102318009C68C90301D4A04204D21168286809182E
:1023280011601B682B681068C018001B30BDC046C0
:1023380010E000E0EC020020F80200200020094A2A
:10234800136A1B021B0A1362074B084A1A60084BE0
:102358001860084B5A600722986019680A431A6087
:102368007047C04600ED00E0F8020020D3300000BE
:10237800EC02002010E000E070B5FFF7C3FF0B4B44
:102388000B4A186811680B4C401810600022256829
:102398001A600949401BFDF717FF074B43435B19B8
:1023A800236001F033F9FFF7CBFB70BDEC0200208E
:1023B800F4020020F0020020D4300000F0B5324DC5
:1023C800324F85B0002954D0431C08D101222B6814
:1023D80093432B60FF231B063B6005B0F0BD3B68B1
:1023E80001930026012804DD294B1E00984200DCD9
:1023F800461EEFF3108372B60393FFF783FF0022A4
:10240800AB680293234B1C68234B04191A60234BB7
:102418001B680093E01A904231DB214B214A5E434E
:10242800801919008018FDF7CFFE1D4B5843009BFB
:102438001B1B18188023DB00984223D91A4B98429B
:1024480020D8002338600138A9686860AB60029B17
:1024580002985B1A1A19884202D2019A9B181A1913
:102468000C4B1A60039B002BB7D162B6BFF36F8F7A
:10247800B3E73B680193431CB3D10548B8E7802014
:10248800C000DEE71800DCE710E000E0F8020020FA
:102498003D050000F4020020EC020020F0020020BC
:1024A800D4300000D330000084C6FF0010B5EFF32D
:1024B800108472B6FFF726FF074B084A1B6812689C
:1024C8009B1A1818002C02D162B6BFF36F8F04490B
:1024D800FDF77AFE10BDC046F4020020F00200208D
:1024E800D4300000F0B585B001920A9A05000F00BB
:1024F80000209A4263D80C241A0E1B0203920293FE
:102508000A9A030003990298FDF738FF6C432D4B94
:102518000600E4186368834200D260602B1FDBB2B8
:102528000093C023009A9B012343012A1BD8012F43
:1025380019D103221A60A3683B42FCD0019A236890
:1025480052015A40E0231A4080235B0123431A605A
:10255800032122687A400A401A600123BB40A2681E
:102568001342FCD01AE0802212011A60164BAA000E
:10257800D158002905D05869FDF726FE01300138E9
:10258800FDD1019A236852015A40E0231A40802362
:102598005B0123431A60009A012AD9D9802380223B
:1025A8009B01234312011A600298666032000023DF
:1025B8000399FDF7E3FE044CAD006051012005B01E
:1025C800F0BDC04600800040FC02002073B50C201E
:1025D80000F0DEF800F0E4F800280AD000232C4AC6
:1025E8002C489900013350500A2BFAD12A4B5362D8
:1025F80073BD2A4DA86700F0B7F80122284B1A606E
:102608006B6C012BFCD10322264B1A60AC6B012C9E
:10261800FCD102250526210000950623224A2348DD
:1026280000F054F833002100214A2248009600F0B7
:102638004DF8214B2900214D009300220420FFF77B
:1026480051FF2B002100002230000095FFF74AFFC0
:102658000022104C1100230000940720FFF742FFCE
:1026680000222300110000940820FFF73BFF0022FE
:10267800094B1100009309202300FFF733FF0022C4
:102688002B00110000950620FFF72CFFB0E7C0468D
:10269800FC020020006CDC021BB700000080004038
:1026A8003CB0004030B00040002F68590080024024
:1026B800008C864700C00240001BB70040597307D2
:1026C800014B8000C0587047FC020020F8B5040098
:1026D8000C2017001E000D00FDF776FD1D49414333
:1026E8003800FDF771FD069A33041203134322687C
:1026F800002A0FDA3F2122680A40AA420AD1A268BA
:102708001205120D824205D1EE21E268C9020A4083
:102718009A421BD0104A944219D0802252010F4984
:102728000F4E0A600F490A601700B1688F43FBD14A
:10273800C022211D92010A4321212560A060116059
:1027480021680029FCDAE36008231360F8BD8022C1
:102758009201E4E740420F0000C0024000E0004060
:1027680000C0004000F00040AA22064B12011A6087
:102778002F220549DA60054A11605A68002AFCDAF6
:102788007047C0460040024000B0FA0000600240B6
:102798008023024A9B000343D362704700800540B0
:1027A800024B18688007C00F7047C04600C006403B
:1027B800084B8200D218402310B51468C00063404B
:1027C800C02423408024640122431360024BC018B4
:1027D800416010BD04C0014000400140074B80002B
:1027E800C0180368C90092000A435A400C231A40D3
:1027F80080235B0103431A607047C04604C0014050
:10280800054B8000C01802228023002900D1C02374
:102818009B0103431A60704704C00140054B8000C8
:10282800C018036859400123194080235B01034302
:102838001960704704C00140064B8000C018036847
:10284800090159403023194080235B010343196073
:102858007047C04604C001400722C30810408000EA
:102868008140024A3C339B00995070470040014028
:10287800F8B5D0231B061C68050063425C412F2372
:1028880064429C430A4B0F00E4181600FFF7E4FF6C
:1028980007232B40ED089B00AD009F40641980235F
:1028A800002E00D1C0239B0123431F60F8BDC04602
:1028B80030410140054B8000C01840228023002988
:1028C80000D1C0239B0103431A60704704C0014034
:1028D80070B5060006200C00FFF7F2FE2100C000CC
:1028E800FDF772FC0124C50907D00E4B9D4215D88F
:1028F8007F23184000192C004508802300227462A9
:102908009B01B5622C3633431A600620FFF7D8FEC8
:10291800A10149198000FDF757FC70BD0025024C44
:10292800EBE7C046FEFF0000FFFF000070B50400A3
:1029380006200D00FFF7C4FE00282ED0194B9C423C
:102948002CD08023DB03184A18491360184A1360F7
:1029580018008A689043FBD1164B174AE31859426E
:102968004B4180215B004900995220002900FFF764
:10297800AFFF6023E26A210053406E221340802299
:102988002C3152010A4313600C4B1022236380231D
:102998009B010B431A600323A36470BD80231B04AF
:1029A800D1E7C0460080034000E0004000C000407E
:1029B80000F000400080FCBF5C0300200103000021
:1029C8001FB50400FEF7D6FC0020064B01900293C9
:1029D800009003000122044901F0A7FD200001F046
:1029E800B3FDC046D14F0010584A0010F0B506009C
:1029F8000F0089B0EFF3108372B6079300F0C0FCA4
:102A0800264B0500042E02D8254BB200D3580024CB
:102A1800244A0493244B06920293012223002000A7
:102A28000699059403960194009401F07EFDA7424F
:102A38000DD0FB69DB05A34209D01C4B0122029390
:102A48002000230006990194009401F06EFD002DEA
:102A580007D0280001F08DFD002802D00378002B54
:102A680000D1134804900020124B012206990293CA
:102A7800019003000090039501F057FD39003000E4
:102A8800FFF79EFF079B002B02D162B6BFF36F8F43
:102A98002800FFF721F909B0F0BDC046E04F00104B
:102AA800BC4B0010584A0010F64F00101E50001082
:102AB800EE4F00103F500010F7B50127104E83006D
:102AC80001309C5983000193019BF358A34200D81D
:102AD800F7BD6568236828009847002D0DD00028A9
:102AE80007D0C2178018EB685040FF2800DDFF2090
:102AF8001870EA6853783B4353700834E4E7C046DB
:102B0800D04B001010B50124094B03201C70FFF7AF
:102B1800D3FF00F029FF0420FFF7CEFF00F0FCF8F8
:102B2800FDF78CFD034A137BA343137310BDC04606
:102B3800630300207801002010B5034A03480021F0
:102B4800121A01F005FD10BD6803002000010020E5
:102B580070B57826012504004643010211488022F9
:102B68000918002086B004950E3503950535654390
:102B78000D4B0590029001900C48F6182D180C4B3F
:102B880030000095520000F071F80422737B2C7419
:102B9800934373730134074BE402E418EE606C60EE
:102BA80006B070BD680B002000010020240300203F
:102BB8008745001068030020F0B50020A5B0FFF796
:102BC8007BFF224B83F308882149224B0A6A0025A0
:102BD8001A40E0231B0413430B6201F07AF9FEF755
:102BE8006FFEFEF7B1FB02221B4E06ABFF329A8145
:102BF800B360209501F08BFC0120FFF75DFF0220F8
:102C0800FFF75AFF00F014FB144C154B7461802237
:102C180005930123134E14490493D2003300200076
:102C2800039502950195009500F020F8042207000D
:102C3800637B20009343637301F0E4FC2800FFF7F3
:102C480087FF320039002000FEF756FF680B00208E
:102C580000ED00E0FFFF00FF2403002078010020C2
:102C6800A15000100D2B0010680C00207FB5040047
:102C78005830A065E0650C98002620730420607326
:102C88000B980732A073072082438D180A9AA66012
:102C9800E673A661E6610292099A20000192089AF9
:102CA80000922A00FEF712FF044B66659B68B34248
:102CB80000D09B6E2800A36604B070BD24030020DA
:102CC80070B50400002086B005900E98119D049000
:102CD8000D98109E03900C9802900B9801900A98FA
:102CE80000902000FFF7C2FF2B00721C01D10133B6
:102CF80005D02B00334305D1200000F02DFA200029
:102D080006B070BD200032002B000249183000F0D8
:102D18000FFCF4E78146001070B5204C86B0260001
:102D28001F4DAC4208D300F05DFA3400AC4219D311
:102D380000F068FA06B070BDA36A0593236A04938D
:102D4800E3690393A3690293636901932369009379
:102D5800E368A26861682068FFF788FF23685C65FC
:102D68002C34DDE7636A5A1C0FD0D843C0171840CB
:102D78000A220023C117FDF745FB26680B00020055
:102D8800014304D1300000F0E7F92C34CEE73000DD
:102D98000449183000F0CCFBF7E7C046104A001091
:102DA800104A00108146001070B50400EFF310853A
:102DB80072B601F07CFC002808D00023036701F0FC
:102DC80021FC2900084800F0B1F970BDA268E36849
:102DD80020009B1A591E8B419B180221A3601030BA
:102DE80001F01FFDEDE7C0466403002013B50400A1
:102DF800EFF3108172B68068002808D00138A0600F
:102E0800002902D162B6BFF36F8F002016BD1000F3
:102E1800184307D1002902D162B6BFF36F8F102083
:102E28004042F3E7009201932200024800F066F95D
:102E3800ECE7C04664030020C289030000207F2A13
:102E480011D80A4A106800280DD00E21084A595690
:102E580012680020914206DB5A7BD20603D105484E
:102E6800181A431E98410123184070474C0300204C
:102E780048030020000100200121044B044AC01A25
:102E8800044BC0104343D1547047C046F0010020A2
:102E980064030020ABAAAAAA70B518240C4B05003D
:102EA8001E7C0C4B7443E418200001F060FC0022E7
:102EB800094B28009A55FFF7BFFF002807D0074B9A
:102EC80020001A680649013AD31700F031FB70BD9B
:102ED80024030020F0010020640300204C0300209C
:102EE800812E001070B50E4D0E4BAC699C4201D07E
:102EF800002C00D1EC68AB68002808D15A7BD206B8
:102F080005D1A269002A02D1DA897F2A05D89C4214
:102F180002D02000FFF7C0FF23006B6170BDC046E0
:102F2800240300203C0300200D2270B582560400C3
:102F3800437B002A04DA7F221340437301F026FB07
:102F48008023627B5B421343134A6373936913487C
:102F5800834200D10023D169002B04D12060616035
:102F68000C60D4610CE00E250E2665579E57B542BD
:102F78000DD0AE420BDD5968236061600C605C6067
:102F88009068001B43425841FFF7ACFF70BD99425F
:102F9800E4D01B68E0E7C046240300203C0300207F
:102FA8000D2370B5C356417B002B26DBCB0624D1FD
:102FB8008369002B21D1802252420A434273114A6D
:102FC800114C9169A14200D00B00D169002B04D1AA
:102FD800046041600860D0610CE00E250E2645575C
:102FE8009E57B5420AD0AE4208DD5A680360426077
:102FF800106058600020FFF775FF70BD8B42E7D066
:103008001B68E3E7240300203C0300200D2210B5D1
:1030180082560400437B002A04DA7F22134043735C
:1030280001F0B4FA034B9868001B43425841FFF77C
:1030380059FF10BD2403002070B51D0016000400C0
:1030480001F0B7FA2B00721C01D1013306D0200021
:1030580032002B000249183000F06AFA70BDC046F1
:103068008146001010B5EFF3108472B60A2343436B
:10307800002802DD022B00DA0223074A1360074BFF
:103088001960074B9868FFF707FF002C02D162B65A
:10309800BFF36F8F10BDC0464C03002048030020CB
:1030A8002403002070B5EFF3108572B6104A114B57
:1030B80094681868A04207D1FFF7EEFE002D02D1F0
:1030C80062B6BFF36F8F70BD00211960127C0A4B86
:1030D8009B5C8B42F2D02000FFF7AEFE0028EDD0BB
:1030E800637BDB0602D12000FFF71EFF2000E3E729
:1030F80024030020440300206403002010B509487D
:103108000C00094B110082681A60EFF3108372B645
:10311800029A039B8068FFF78FFF2000FEF77CFC74
:1031280010BDC046240300204403002010B5002928
:103138000AD1EFF30580002807D1064B9A685B692E
:103148009A4202D0FEF768FC10BD62B6BFF36F8FDB
:10315800FAE7C0462403002010B5EFF3108472B6D6
:103168000422437B134205D1002C02D162B6BFF37F
:103178006F8F10BD93434373FFF712FF210002487E
:10318800FFF7D4FFF5E7C0466503002070B50400DB
:10319800183001F0ECFAEFF3108672B60D22A25641
:1031A800637B002A05DA7F2213402000637301F055
:1031B800EDF910230A4D627BA8681343001B637363
:1031C80043425841FFF78EFE002E02D162B6BFF38C
:1031D8006F8FAB68A34201D101F0A4FA70BDC0465D
:1031E80024030020EFF3108172B6054B9A68D37B55
:1031F800013BD373002902D162B6BFF36F8F7047CA
:103208002403002010B5EFF3108472B6074B00209A
:103218009A68D37B0133D373FFF764FE002C02D185
:1032280062B6BFF36F8F01F07DFA10BD2403002052
:10323800002110B5034B044A08009A61DA61FFF7D0
:1032480011FF10BD240300203C030020F8B5EFF364
:10325800108572B67F22194CA068437B13404373D4
:1032680001F094F98022A3685242597B14480A431A
:103278005A73A269824200D10022E169002A04D16E
:10328800186059600B60E3610CE00E260E279E570C
:10329800D757BE420DD0B7420BDD51681A6059604E
:1032A8000B6053600120FFF71DFE2800FEF7B4FBFA
:1032B800F8BD8A42E4D01268E0E7C0462403002043
:1032C8003C0300200300F7B50B4304000D00002B5E
:1032D80003D1FFF7BBFF0020FEBD4B1C2EDB4B1CB0
:1032E80001D1831C2AD301F055FA2718EFF3108374
:1032F80072B6144E0193B068134B1860FFF786FE40
:10330800B06822002B001149183000F011F9102381
:10331800B2680198517B0B435373FEF77DFB01F0B4
:1033280039FA00233A0004001D00121BAB41AB42DE
:1033380002DCD0D1AA42CED01000CDE702277F42CE
:103348003F1BD3E7240300204403002081460010DC
:1033580010B50B000C00421C07D1013305D1074BF7
:103368009868FFF713FF200010BD2100FFF7AAFFA0
:103378000A220023C117FDF701F8F5E7240300200E
:10338800014B98687047C0462403002070B50400BC
:10339800EFF3108672B6037BDB0708D5002E02D147
:1033A80062B6BFF36F8F042062B602DF70BD0823D8
:1033B800427B1A4205D0002EF8D162B6BFF36F8F58
:1033C800F4E72021100088430100194348B200287F
:1033D80020DB6173A368002B02D0200001F0DEF827
:1033E8002000183001F0C3F92300A56D58339D4221
:1033F80001D0002D16D10120FFF774FD104B9B68FA
:10340800A342D8D1EFF30583002BD4D13000FEF7C7
:1034180003FBD0E75F210A4013432000637301F0E8
:10342800B5F8D7E7280001F0B9F82800183001F0FE
:103438009EF9002328002B67FFF7B2FDD4E7C046AA
:103448002403002073B5069D079E089C00950196ED
:10345800FFF754FE002C03D0024B9B685B69236086
:1034680076BDC0462403002010B50648064A074921
:10347800121A01F071F8064A0649074801F06CF87B
:1034880010BDC04600000020FC000020F4500010D1
:1034980000000000F450001000000020002010B5CB
:1034A800034B1B68834201D1FFF700F810BDC046EB
:1034B8005003002070B50E4B1E689E4203D1FFF7E3
:1034C800EDFF0C4870BDFFF7E9FF002EF9D0326917
:1034D80073690400C517121BAB41002BF1DC03D143
:1034E800802109068A42ECD2D843C0171040E9E788
:1034F800E8000020FFFFFF7F30B500280ED00B4BFF
:103508005B6898420AD00168002907D00A694B69AC
:103518000469456912196B410A614B610368426885
:1035280013605A6000230360436030BDE800002048
:10353800F7B5040016001F00531C01D17B1C57D09F
:10354800A160EFF3108372B60193002F23DA7B1C7E
:1035580001D1B31C1FD82B4B18685968022252425C
:10356800D317121A8B41921BBB41002B04DC01D1EB
:10357800002A01D101220023234F226163613D68A3
:10358800BD4200D100257E68002D0FD127606660FE
:1035980034607C601CE0FFF781FF01220023921950
:1035A8007B410600C71792197B41E5E728696969DD
:1035B80022696369994202DC1BD1904219D9801AA9
:1035C80099416B6828616961636025601C606C6063
:1035D8003B68BB4206D09C4204D1FFF76BFF002139
:1035E800FEF7ECFE019B002B02D162B6BFF36F8F92
:1035F800F7BD121A8B4122616361B542C6D02D68AE
:10360800C2E7C04608020020E8000020F0B585B0F7
:10361800EFF3108372B60293304B1860304B1C687E
:103628009C4200D100242F4B2C4D039318685968F5
:103638002B689C46002C39D062692669DB179A42B0
:1036480002DC0AD1664508D91F002269636966460B
:10365800921BBB412261636128E0F3170096019336
:10366800009A019B80185941002300221D4F2261B6
:103678006361386079602000FFF73EFF029B002BF2
:1036880002D162B6BFF36F8F2000A3689847EFF3AB
:10369800108372B60293114B1A68921B1A60104B72
:1036A80094461C689C42BED1386879686246D31734
:1036B80012184B41002403992C600A604B60FFF7F5
:1036C800F9FE2100FEF77AFE029BA34202D162B600
:1036D800BFF36F8FFFF7E6FC05B0F0BD5003002085
:1036E800E80000200802002010B5EFF3108472B63D
:1036F800FFF7D4FE02000649C31708684968801816
:103708005941002C02D162B6BFF36F8F10BDC0467D
:1037180008020020F7B50400EFF3108572B60368BD
:103728000195002B05D0002D52D162B6BFF36F8FE3
:103738004EE0826AC36A002101208018594100299D
:1037480001D1012829D9002B04DC01D1002A01D19B
:103758000122002301267642F717B6185F4101F0CF
:103768001DF8012200238018594180197941002948
:1037780002DC2ED100282CD001F010F80122002301
:103788008018594102225242D31780197941121ADE
:103798008B4120001849FFF7CBFE236B01332363CD
:1037A800236A002B0BD0002D02D162B6BFF36F8FB6
:1037B8002000236A9847EFF3108372B60193A56936
:1037C8001834A54201D0002D07D1019B002BACD0A5
:1037D800F7BD02225242D317DBE7280000F01EFF94
:1037E80000232B67019B002B02D162B6BFF36F8FBA
:1037F800280000F007FFEBE71D37001070B5060042
:1038080014001D00511C01D1591C22D0002B03DAD1
:10381800591C0FD1911C0DD914001D1E05DC002B5D
:1038280001D1002A01D10124002501225242D317D7
:10383800A4185D41300000F09AFF049A059BB2621B
:10384800F36200232200336330002B000149FFF7A5
:103858006FFE70BD1D370010F7B584680500019133
:10386800002C0BD06378012B36D12600603E727B8A
:103878000133110019401A4210D12170EA680199E8
:10388800D3025B0E19430B007F2100200B40224915
:103898009B030A401A43A860EA603BE0B36A02331C
:1038A80002D1F36A013331D0300000F019FF019BD7
:1038B800082B0ED000233367737BDB060ED1230061
:1038C800483B1F68002F09D1300000F09BFE27708D
:1038D800D4E704235B42EEE7022B02D000232370D7
:1038E800CCE72378002BC9D02700143F3E69002E6F
:1038F8000AD02000143000F03AFF002339003000CD
:103908003B6400F0B2FFE9E72670B7E700230B201D
:1039180023704042FEBDC046FF3FE0FF030070B584
:10392800EFF3108572B6C16001218160006883429F
:1039380003D1002D11D000240DE003684268136004
:103948005A60002303604360FFF786FF29000400E4
:103958000448FFF7EBFB200070BD62B6BFF36F8F22
:10396800E9E7C0466503002010B5024800F08EF96B
:1039780010BDC046A950001030B5094B85B00024D1
:1039880002938022012302AD2C7106490648009556
:103998005B42D20000F004F9200005B030BDC046FB
:1039A800EB5000106810002010020020F0B5050050
:1039B80087B0EFF3108772B62E00AC6F9036002CEC
:1039C80013D10221300000F03BFF00283CD1002336
:1039D8002A00029301235B42DC173900009301940B
:1039E80080323948FFF72EFDE3E72368EA6FAB67BB
:1039F800944200D1EB6702223368134333600423F7
:103A0800E2689A43033B1343E3606368002F25D0C1
:103A180020009847EFF3108372B60593E3680121FD
:103A28001A008A43500808421CD1E2600222336817
:103A38009343059A3360DB05DB0F002A3FD0002B48
:103A4800B7D1FFF703FCB4E72C008834002201212A
:103A5800200000F06EFE0028F8D1B8E762B6BFF388
:103A68006F8FD5E703229343E360184B186800284B
:103A7800DCD00027036804930028D7D043680200ED
:103A88009C420ED10268114B002F12D159681A605E
:103A9800814200D15A60002303600830FFF784F99F
:103AA8003A00049B002B00D01B680498170004936D
:103AB800E2E73A605A688242EDD15F60EBE762B6AE
:103AC800BFF36F8FBBE7C046650300205403002097
:103AD800F7B5C3680D00590801220F00040017400C
:103AE80011424BD19B0813421DD12B68002B01D1E9
:103AF80083682B600127E3683B4202D0A368FF1963
:103B08002B602E68002E47D03200244B90329B68E1
:103B18000192B34222D00121126893080B400A4255
:103B280004D113277F4200232B6015E0002B25D1F9
:103B3800D3080B40002B21D100232360F36F002B07
:103B480027D1F467B467300000F086FE0423E268EA
:103B58001343E3602B68A3603800FEBD00F000FD4E
:103B6800019B01221B6800280AD1D9081140134281
:103B7800D7D00029E0D09B081342DDD11027D1E728
:103B8800990811401342CCD00029F7D1DB08134023
:103B9800D0E71C60F467D6E71627C3E724030020A4
:103BA800F0B5040000202600A067E0678036201DDD
:103BB80089B0C6670E9D0430C667803000604060DB
:103BC8000120002D07D0287946427041FF26404247
:103BD800B0430230FF30260090363060012676422E
:103BE800F7170696079700260B48039304960300D9
:103BF8000296200001960094FFF762F8B54205D0BE
:103C08002968B14202D0200000F0B0FC200000F08A
:103C1800B2FC09B0F0BDC046B53900107047704716
:103C2800F0B585B00D001C1E0290039229D0002625
:103C38005B780193E078237840009B00C018A37854
:103C4800C0182018019B9E4210D362792379120272
:103C58001A43A37903991B041343E27902981206C5
:103C68001A4323000833A84705B0F0BD0378471C62
:103C78009B0038001F5100F02DF90130381801362B
:103C8800E0E716204042EFE7002070470FB407B581
:103C980004A901C9019100F088F803B008BC04B078
:103CA800184710B50400080011001A00A047FFF7D4
:103CB80067FBFEF711F8F0B585B001900393D37850
:103CC80015001A00413A0F00082402926F2B0AD0FF
:103CD80004D82419582B06D0063C04E008221024E6
:103CE8009343702BF8D10A9E2200002339000198D3
:103CF800FCF744FB13008C46D2B2092B1AD8303299
:103D0800D3B2013E33700023BB4202D1019B9C42D7
:103D180002D8039B9E420AD82B789B0604D5082C10
:103D280010D1AB782343AB70300005B0F0BD6746C7
:103D38000190D9E7130002995733DBB21929E0D86B
:103D48003732DDE7102CEFD1AB781C43AC70EBE7D2
:103D5800F7B5070015001E0014000191A64206D809
:103D6800002E01D0601B08E02378002BFAD02078C1
:103D78000199B84701340028F0DAFEBD70470020E9
:103D8800704710B500F00AFD0A220023FCF7F6FA86
:103D980010BD10B5012100F01EFD10BD002110B5A9
:103DA8000800FDF753FA002010BD1FB5029000204F
:103DB800039103000200010001900090FDF748FB09
:103DC80005B000BD70470020704770B50E000400B4
:103DD80015001900002802D1FDF7ECFA70BD002B80
:103DE80006D02B035B0D1030120DC01800F084F8BC
:103DF800200025606660FDF7EDFAEFE713B56B4626
:103E08004A68D87107330C68180001215268A04726
:103E1800002016BD70B504000D000A2802D10D203F
:103E2800FFF7ECFF29002000FFF7E8FF002070BD36
:103E3800F8B506000D0014001F00210028003A0004
:103E4800B047241A2D18002CF7D1F8BD13B500245B
:103E58000094FCF767FE16BD10B5426804000CCA52
:103E680081680068FFF7E4FF002263681A6010BDEC
:103E780070477FB50BAB0593002003930A9B012283
:103E88000293019003000090FDF7E2FA07B000BD2D
:103E980010B501000068FDF721FD10BD10B5002127
:103EA8000120FDF71BFD10BD10B5FDF79DFDFDF7C9
:103EB80047FE10BD7FB50BAB0593002003930A9B0B
:103EC80001220293019003000090FDF7C1FA07B0A8
:103ED80000BD7047030000201A5C002A00D170471B
:103EE8000130F9E7030000201A5C002A01D088425B
:103EF80000D170470130F7E7002310B59A4200D18E
:103F080010BDCC5CC4540133F8E70300C9B2821871
:103F1800934200D1704719700133F9E701204042FC
:103F2800704710B5002203211620FDF733FD162037
:103F3800FDF724FD10BD7FB50BAB0593002003935F
:103F48000A9B01220293019003000090FDF780FA7A
:103F580007B000BD10B50400083C0121200000F0A6
:103F68003AFC002803D12000FDF766FF10BD10239E
:103F78005B422367FAE710B50022FDF78BFF10BDFF
:103F880010B50400406F002801D0FFF7C7FC2000DF
:103F98004030FEF709FF10BDD0231B065B680020E8
:103FA8000B6070470A0010B503691000196988434F
:103FB8000100D020000641611C6959692140114067
:103FC800816219695B69114099434162002010BD03
:103FD8000A0010B503691000196988430100D02050
:103FE800000681611C6959692140114041621969C3
:103FF8005B69114099438162002010BD0369080084
:104008001A699043D0221206D0611B6900200B4028
:10401800D362704710B503695868002821D08842D8
:104028001BD108689C685860A14200D198600020A4
:104038000860824206D05A680A609A685960002A65
:1040480000D19960002010E0814206D10868206004
:1040580098688142EBD19C60E9E704000068002879
:10406800F2D1002AE7D11620404210BD10B54368AE
:104078005B689847002010BDF7B50D00076916006A
:104088000F21002228001C00FEF7F2FB012213007A
:10409800AB40019380239B039E4205D1FB68019AA4
:1040A80093430020FB60FEBD8023610EDB042340A8
:1040B8001140F6010DD58900002B01D008231943C2
:1040C80001222800FEF7D4FBFB68019A1A4313006B
:1040D800E7E7002BF4D00223F1E710B50022032113
:1040E8000D20FDF757FC0D20FDF748FC10BD30B53D
:1040F8000469D02000060369256953400B40AB438F
:104108000D00C361036A53409D432B0025691D4080
:1041180063692B40C362036A5A400A402169636994
:1041280011409943C162002030BDF8B515000F0059
:104138000124520929090669214038002240FEF766
:104148004DFB05213800FEF733FBAB0325D5BC40FA
:104158003269A90715D522433261D0227169120646
:10416800680707D52143716194616D0307D55462CF
:104178000020F8BDA143716154612D03F7D4946206
:10418800F6E7A2433261D0221206290301D5546111
:10419800EDE76D03EBD59461E9E7ED03E8D5D022AF
:1041A800BC401206EBE730B5036813600579046874
:1041B800ED006419A34202D30220404230BD5C796D
:1041C8008C4201D00833F0E70020F7E7F8B5040087
:1041D80001268D004519AC4201D10020F8BD207898
:1041E800271DC006C00E00F087F921882078C90570
:1041F800C006090FC00EFEF7DBFA61782078CA09FD
:10420800C0064906C90FC00EFEF7E8FA61782078A3
:10421800C906C006090FC00EFEF70EFB61782078AC
:104228004909C0063140C00EFEF7F8FAA178207897
:104238008907C006C90FC00EFEF7E2FAA1782078F8
:10424800C907C006C90FC00EFEF734FB3C00C2E721
:104258000020704783680079022809D004280BD011
:1042680001280CD1C9180B78DBB200201360704705
:10427800C9180B889BB2F8E7C9180B68F5E7162030
:104288004042F4E70300F0B585B05F6801923E79DB
:104298000800F100FBF7D4FF03AA04000D0081B267
:1042A8003800FFF7D7FF002817D101220399EDB294
:1042B800AA400B00944693437D79019A954201D018
:1042C80063460B43BA68022E09D0042E0CD0012E87
:1042D8000ED1A4B2DBB2A418237005B0F0BDA4B20D
:1042E8009BB2A4182380F8E7A4B2A4182360F4E7CB
:1042F80016204042F1E710B50122FFF7C3FF10BDB9
:1043080010B50022FFF7BEFF10BD70B504000D0008
:10431800FFF7F1FF002803D129002000FFF7F0FF85
:1043280070BD030073B55E68080031791400C900D8
:10433800FBF786FF01AA0D0081B23000FFF78AFF64
:10434800002809D1019BEDB2EB4001229A43737911
:1043580059424B415340237076BD10B54368102233
:104368005B689C6920001040144202D11B680B70E6
:1043780010BD01204042FBE7202243685B68986932
:104388001042FCD11960704743685B681B681805C8
:10439800C00F5A0501D5082210439A0501D50222FB
:1043A8001043DB0501D504231843704730B5202599
:1043B800436800205B689C692C4202D1141A002CC7
:1043C80000DC30BD0C5C01301C60F4E730B5102512
:1043D800436800205B689C692C4202D1141A002CA7
:1043E80000DC30BD1C680C540130F4E7202243681F
:1043F8005B68996B0A4307219A635A6B8A435A632D
:104408007047202143685A68936B8B4393637047C6
:1044180043685B68186C8006C00F704710224368B9
:104428005B68996B0A4338219A635A6B8A435A63CB
:104438007047102143685A68936B8B4393637047A6
:1044480043685B6898690006C00F704743685B68FB
:10445800186CC006C00F704743685A68F823916B00
:10446800DB000B439363704710B50400FFF7EEFFC2
:1044780003000120002B04D12000FFF7C9FF431ED1
:10448800984110BD0120704703699960DA60704750
:1044980010B502699368002B01D0D168984710BD08
:1044A800030010B5080008221969FFF725FD002050
:1044B80010BD10B5002203211420FDF76BFA14205B
:1044C800FDF75CFA10BD70B5436806000C0005697D
:1044D80009681868FEF7FCF9002802D11620404246
:1044E80070BDA379627921797068FDF7A5FE00286F
:1044F800F4D106CC06C5F3E70123D022834010B5DA
:104508001206936205219361FEF752F910BD7047B8
:10451800002809D00123C26800205178194202D02E
:10452800107842425041184070477FB50BAB059355
:10453800002003930A9B012202930190030000903C
:10454800FCF786FF07B000BDEFF3108372B6FEE7F5
:1045580010B5FFF7DAFC10BD10B5FFF7CDFC10BDA4
:10456800EFF30580431E9841C0B27047582040427F
:1045780070470020704710B5FEF7EEFD10BD10B56E
:10458800EFF3108372B6FDF7A1F9F9E70368426803
:1045980013605A60002303604360704710B504003D
:1045A800FFF7F4FF0222637B934363730023A36046
:1045B80010BD70B504000D00FEF728FD0223627BD4
:1045C80013436373002D1CD0A5602B689D4209D14D
:1045D8006B68256063601C606C6012E06A689342D7
:1045E800F6D01B68002BF3D00E220E21A256595686
:1045F8008A42F3D09142F1DD5A6823606260146008
:104608005C6070BD10B5EFF3108472B6FEF7C8FC9D
:10461800002C02D162B6BFF36F8F10BD10B5EFF357
:10462800108472B68368002B01D0FFF7B7FF002C07
:1046380002D162B6BFF36F8F10BD70B504000E00D3
:10464800EFF3108572B62823427B1A420ED1836895
:10465800002B01D0FFF7A2FF0422637B002E00D0BD
:104668001422934320006373FEF79AFC002D02D1B5
:1046780062B6BFF36F8F70BD10B501211838FFF710
:10468800DCFF10BD70B5EFF3108572B60468A04268
:104698000BD0002C02D02000FFF780FF002D02D1A4
:1046A80062B6BFF36F8F200070BD0024F6E770B5C7
:1046B800EFF3108572B60468A0420FD0002C06D024
:1046C8002000FFF76BFF2000183000F050F8002D95
:1046D80002D162B6BFF36F8F200070BD0024F6E7E9
:1046E80070B50400EFF3108572B68368002B01D013
:1046F800FFF754FF002D02D162B6BFF36F8F200081
:10470800183000F034F870BD10B5002805D1EFF36B
:104718000580002802D1FDF77FF910BD62B6BFF30E
:104728006F8FFAE710B5EFF3108072B6FFF7ECFF62
:1047380010BD030070B5EFF3108572B60468002051
:10474800A3420ED084420CD0216762612000FFF79B
:1047580025FF2000183000F00AF82000FEF720FCA2
:104768000120002D02D162B6BFF36F8F70BD10B566
:10477800EFF3108472B60368002B08D0FEF7BCFE76
:104788000020002C02D162B6BFF36F8F10BD162037
:104798004042F6E710B5FEF7A7FF10BD10B5FEF7CB
:1047A800A3FF10BD10B50400FFF7E1FF002811D1E9
:1047B800636A002B01D02000984720001830FFF7CB
:1047C80061FF002806D0FFF71DFFEFF3108072B6D7
:1047D800FFF79AFF10BD0300EFF3108272B600686E
:1047E80041181960002A02D162B6BFF36F8F704773
:1047F8000300EFF3108272B60068411A1960002AAC
:1048080002D162B6BFF36F8F70470300EFF31082D7
:1048180072B600681960002A02D162B6BFF36F8FC2
:10482800704710B503000068834208D003684268E7
:1048380013605A60002303604360FFF70DF810BD52
:10484800012230B5140003688C401D00CB40A543FD
:1048580005601800104030BD10B5002804D00022B3
:1048680080301100FFF765FF10BD13B501900800F7
:10487800EFF3108472B601A9FFF72AF9002C02D1D0
:0848880062B6BFF36F8F16BD8D
:08489000CEBBFF7F0100000018
:10489800251D00100000000059420010E0480010DB
:1048A80099220010F848001075210010000000003F
:1048B8004523001000000000A53D00100000000086
:1048C80075400010104900108139001000000000E8
:0848D8001D2100102849001009
:1048E000A64F0010204B00102C4B0010F4000020AD
:1048F00000000000264A0010C34F00103C4B00107F
:104900006C4B0010F6000020D80000201E4A00105A
:10491000984F0010F44A0010FC4A0010F2000020EA
:10492000D4020020184A0010834F0010EC4A0010F7
:10493000C8000020F000002000000020104A0010F5
:1049400000000000A53E001000000000A53E001081
:1049500000000000A53E001000000000A53E001071
:1049600000000000A53E001000000000A53E001061
:1049700000000000A53E001000000000A53E001051
:1049800000000000A53E001000000000A53E001041
:1049900000000000A53E001000000000A53E001031
:1049A00000000000A53E001010490010C9210010B1
:1049B00000000000A53E001000000000A53E001011
:1049C00000000000A53E001000000000A53E001001
:1049D00000000000A53E001000000000A53E0010F1
:1049E000F84800109944001000000000A53E001097
:1049F000284900101120001000000000A53E001002
:104A000000000000A53E001000000000A53E0010C0
:104A1000010000800080FF7F00800080FF7F010098
:104A200000800080FF7F0080008002000400FF7F84
:104A3000904F001003000000AE4C00100300000077
:104A4000C54C001003000000C94C0010030000001A
:104A5000554D001003000000A65000100300000098
:084A6000984E00100300000055
:104A6800C04A0010BC020020444D001001000000A4
:104A780028490010000108040000000000000C0094
:104A8800C117001000000000000000000000000036
:104A980000000000244D00102C4D00100000000004
:104AA8000000000000000000344D0010384D0010D8
:104AB8003C4D0010404D001085180010000000000B
:104AC8006D180010793E00100000000061180010F9
:104AD80000000000A5180010C40200206103002097
:104AE80001000000050000002B3F0010FFFFFF3F02
:104AF800E340001033410010A13F0010F7400010C0
:104B0800AD3F0010D93F0010054000108140001053
:104B18001D4000100000000000C00040040000001C
:104B280000C000402B430010FF4200100943001052
:104B3800134300100040034000400340544B001052
:104B4800E048001016000000BB4400105C4B001049
:104B580001000000644B0010020000004002000049
:104B6800410201006343001081430010914300108B
:104B7800CF440010A9440010B5430010D5430010DD
:104B8800F54300100B440010194400102544001090
:104B98003B44001049440010554400106144001083
:104BA8002D220010714400108D4400109144001013
:104BB800F5FFFFFF575000106550001079500010A6
:104BC8008850001094500010984800109848001021
:104BD800B8480010C0480010E0480010E048001035
:104BE80041444320636F6E74726F6C6C657220640D
:104BF8006576696365206E6F742072656164790AF1
:104C080000436F756C64206E6F74207365747570E3
:104C1800206368616E6E656C2023256420282564F6
:104C2800290A004144432072656164696E673A0A43
:104C3800002D2025732C206368616E6E656C20251D
:104C4800643A2000436F756C64206E6F742072653F
:104C5800616420282564290A00257500203D20521A
:104C68006573697374656E636961204E54432025CA
:104C78006C6400203D2054656D7020256400202858
:104C880076616C756520696E206D56206E6F742094
:104C9800617661696C61626C65290A00203D202596
:104CA80064206D560A0063627072696E74665F7084
:104CB80061636B61676500286E696C29006C6F67BA
:104CC800006C6F675F6D676D74000D0A001B5B30C9
:104CD8006D00257320005B2530386C755D20005B06
:104CE800253032753A253032753A253032752E2501
:104CF8003033752C253033755D20002573003C2535
:104D0800733E200025732F0025733A20002530328A
:104D1800782000202020007C002563001B5B313BAD
:104D280033316D001B5B313B33336D0065727200AC
:104D380077726E00696E6600646267006C6F675F09
:104D48006261636B656E645F75617274006C6F6736
:104D58005F756172740072302F61313A20203078AB
:104D680025303878202072312F61323A202030786F
:104D780025303878202072322F61333A202030785D
:104D8800253038780072332F61343A202030782566
:104D9800303878207231322F69703A2020307825E7
:104DA800303878207231342F6C723A2020307825D0
:104DB8003038780020787073723A202030782530A7
:104DC8003878004661756C74696E6720696E737413
:104DD80072756374696F6E206164647265737320A1
:104DE800287231352F7063293A2030782530387889
:104DF80000526573657276656420457863657074E2
:104E0800696F6E20280053707572696F7573206919
:104E18006E7465727275707420284952512000535F
:104E28005053454C20696E20746872656164206D2A
:104E38006F646520646F6573206E6F7420696E649B
:104E4800696361746520505350002A2A2A2A2A204F
:104E580048415244204641554C54202A2A2A2A2A9D
:104E680000415243485F4558434550542077697480
:104E78006820726561736F6E2025780A002A2A2AD5
:104E88002A2A20257320256429202A2A2A2A2A004A
:104E9800736F6300060105010401030105020201A5
:104EA80003020504010101020103010401060108CE
:104EB800010C01100118012001400180756E737505
:104EC80070706F72746564206368616E6E656C20C3
:104ED80069642027256427004163717569736974C3
:104EE800696F6E2074696D65206973206E6F742018
:104EF80076616C696400756E737570706F72746535
:104F08006420646966666572656E7469616C206D9B
:104F18006F6465004761696E206973206E6F742045
:104F280076616C696400756E737570706F72746504
:104F380064207265736F6C7574696F6E20256400E8
:104F4800756E737570706F72746564206368616ED6
:104F58006E656C7320696E206D61736B3A203078D2
:104F680025303878006275666665722073697A65DF
:104F780020746F6F20736D616C6C006164634034E2
:104F880030303463303030006164635F72706900C0
:104F98006770696F403430303134303030007265BA
:104FA8007365742D636F6E74726F6C6C65724034C8
:104FB8003030306330303000000201756172744067
:104FC80034303033343030300048616C74696E6787
:104FD8002073797374656D00556E6B6E6F776E20F4
:104FE8006572726F7200756E6B6E6F776E003E3E03
:104FF8003E205A455048595220464154414C20457C
:1050080052524F522025643A202573206F6E204358
:105018005055202564004661756C7420647572696A
:105028006E6720696E746572727570742068616E3F
:10503800646C696E670A0043757272656E742074D9
:1050480068726561643A2025702028257329004319
:10505800505520657863657074696F6E00556E6889
:10506800616E646C656420696E74657272757074C3
:1050780000537461636B206F766572666C6F77009E
:105088004B65726E656C206F6F7073004B65726E46
:10509800656C2070616E6963006D61696E006F7385
:1050A800002A2A2A20426F6F74696E67205A657039
:1050B800687972204F53206275696C64207A657034
:1050C8006879722D76332E332E302D313639302DC6
:1050D80067613761616663626264633261202A2AAC
:0C50E8002A0A00737973776F726B7100F5
:1050F40000000000000000000000000000000000AC
:105104001D37001000000000000000000000000037
:1051140020000020200000205D3F0010000000005F
:10512400000000000000000000000000000000007B
:1051340040000020400000200000000001000000AA
:10514400500000205000002058000020580000208B
:10515400000000000100000068000020680000203A
:10516400000000000000000000000000000000003B
:10517400000000000000000000000000000000002B
:10518400000000000000000000000000000000001B
:10519400000000000000000028490010000000008A
:1051A4000000000000000000A0860100913C0010F7
:1051B400873D0010253F0010AD1D00107F3F0010FB
:1051C4009D1E0010E40C000000C20100000000005D
:1051D4000000000000000000E8000020E8000020BB
:0851E4000000000000000000C3
:0451EC0000000000BF
:0451F00015E015E0D1
:0400000510001CB912
:00000001FF
